:020000040800F2
:1000000078170020DD01000879100008A50D000810
:10001000751000087D060008B51C000800000000EF
:100020000000000000000000000000002512000891
:10003000DD06000800000000ED1000086113000854
:10004000F7010008F7010008F7010008F7010008B0
:10005000F7010008F7010008F7010008F7010008A0
:10006000F7010008F7010008F7010008F701000890
:10007000F7010008F7010008F7010008F701000880
:10008000F7010008F7010008F7010008F701000870
:10009000F7010008F7010008F7010008F701000860
:1000A000F7010008F7010008F7010008F701000850
:1000B000F7010008C5130008F7010008F701000860
:1000C000F7010008F7010008F7010008F701000830
:1000D000F701000849150008D115000805170008A8
:1000E000F7010008F7010008F7010008F701000810
:1000F000F7010008F7010008F7010008F701000800
:10010000F7010008F7010008F7010008F7010008EF
:10011000F7010008F7010008F7010008F7010008DF
:10012000F7010008F7010008F7010008F7010008CF
:1001300000F002F800F042F80AA090E8000C8244B7
:100140008344AAF10107DA4501D100F037F8AFF294
:10015000090EBAE80F0013F0010F18BFFB1A43F0A5
:1001600001031847882F0000A82F0000103A24BF71
:1001700078C878C1FAD8520724BF30C830C144BF0C
:1001800004680C607047000000230024002500264E
:10019000103A28BF78C1FBD8520728BF30C148BFEA
:1001A0000B607047642900F07B80782900F0B480F0
:1001B000002070471FB51FBD10B510BD00F02BFA11
:1001C0001146FFF7F7FF02F083F800F049FA03B495
:1001D000FFF7F2FF03BC01F06FFD00000948804704
:1001E00009480047FEE7FEE7FEE7FEE7FEE7FEE719
:1001F000FEE7FEE7FEE7FEE704480549054A064B31
:1002000070470000651300083101000878110020D4
:100210007817002078130020781300207047000022
:100220000FB4044910B503AA029800F07DF910BC80
:100230005DF814FB040000202DE9F0410E46044651
:10024000002020622046E168884730B3252805D089
:10025000D4E901219047206A401CF2E7E16820467A
:1002600000278847050018D0A5F14100192802D8B9
:1002700020354FF400673246294620462760FFF7B5
:1002800091FF40B1012804D0F61D26F0070608367C
:10029000D8E7361DD6E72846DAE7206ABDE8F081C0
:1002A0002DE9F0410646002410687529314616A54F
:1002B00010D0AFF30080002802DA404213A507E017
:1002C00031688A0701D512A502E0490704D511A5B6
:1002D000012401E0AFF3008000210A2206F1240787
:1002E00009E0B0FBF2FCB0FBF2F302FB1C00303083
:1002F00078541846491C0028F3D123462A46304634
:10030000BDE8F04100F0B7B8000000002D0000008B
:100310002B0000002000000070B504460D46214669
:100320001068AFF300802188090502D50F4A7A448E
:1003300002E00E4A7A440E32002104F1240305E063
:1003400000F00F060009965D5E54491C0028F7D1A5
:1003500020780023000704D5702D02D009B10223B4
:1003600011322046BDE8704000F085B8022D000033
:10037000032A40F2308010F0030C00F0158011F8D1
:10038000013BBCF1020F624498BF11F801CB00F8A9
:10039000013B38BF11F8013BA2F1040298BF00F8FD
:1003A00001CB38BF00F8013B11F0030300F02580BA
:1003B000083AC0F0088051F8043B083A51F804CBE1
:1003C000A0E80810F5E7121D5CBF51F8043B40F8A7
:1003D000043BAFF30080D20724BF11F8013B11F8B2
:1003E00001CB48BF11F8012B24BF00F8013B00F8F6
:1003F00001CB48BF00F8012B704710B5203AC0F080
:100400000B80B1E81850203AA0E81850B1E8185015
:10041000A0E81850BFF4F5AF5FEA027C24BFB1E852
:100420001850A0E8185044BF18C918C0BDE81040C3
:100430005FEA827C24BF51F8043B40F8043B08BFCC
:100440007047D20728BF31F8023B48BF11F8012B93
:1004500028BF20F8023B48BF00F8012B704702F08C
:10046000FF0343EA032242EA024200F071B87047F8
:100470007047704770472DE9F0470D469946924600
:10048000044600F124080168880604D5E06921F0DB
:100490001001216000E00120A84201DD471B00E0BF
:1004A0000027A1697A1902EB0900081AA0612078D7
:1004B000C00602D42046AFF30080002608E0D4E94D
:1004C00001211AF806009047206A401C761C206221
:1004D0004E45F4DB2078C0060AD52046AFF30080F5
:1004E00006E0D4E9012130209047206A401C2062B8
:1004F000381EA7F10107F4DC07E0D4E9012118F860
:1005000005009047206A401C2062281EA5F10105C5
:10051000F3DC2046AFF300802078000602D50220ED
:10052000BDE8F0870120FBE7074B70B50D467B4423
:1005300000F033F80446284600F042F810B14FF0BE
:10054000FF3070BD204670BD2B1D00004FF0000233
:100550000429C0F0128010F0030C00F03780CCF1B9
:10056000040CBCF1020F18BF00F8012BA8BF20F843
:10057000022BA1EB0C0100F029B85FEAC17C24BF7B
:1005800000F8012B00F8012B48BF00F8012B704741
:1005900001694A1C02610878704700B58FB0CDE947
:1005A00001310021059105497944CDE90310114637
:1005B0006846FFF741FE0FB000BD0000E5FFFFFFFA
:1005C000007B00F0800070474FF0000200B513463A
:1005D00094469646203922BFA0E80C50A0E80C5063
:1005E000B1F12001BFF4F7AF090728BFA0E80C5014
:1005F00048BF0CC05DF804EB890028BF40F8042B0D
:1006000008BF704748BF20F8022B11F0804F18BF79
:1006100000F8012B7047754600F02CF8AE46050037
:100620006946534620F00700854618B020B5FFF70D
:10063000E3FDBDE820404FF000064FF000074FF00B
:1006400000084FF0000B21F00701AC46ACE8C009F0
:10065000ACE8C009ACE8C009ACE8C0098D467047F9
:1006600010B50446AFF300802046BDE81040FFF708
:10067000AEBD0000004870471811002000BFFEE723
:1006800021B1026842F00102026004E002684FF604
:10069000FE731A40026070470146486880B2704796
:1006A00010B50022026847F6F0739A430C6A8B6813
:1006B00023430C6923434C6923438C692343CC694E
:1006C00023434C6A23438C6A23431A430260CB685A
:1006D00043600B6883604B68C36010BD70470000C7
:1006E00070B5AA480469AA480078002860D1A748D4
:1006F00090F82C0000F0080030B9A44890F82C00C5
:1007000000F00400002853D0A24804600168A2A0B1
:10071000FFF786FD9D4890F82C0000F0080010B10E
:1007200001209B490870994890F82C0000F00400C3
:1007300010B105209649087095480078012819D114
:100740009249B1F9080001F013FB9049096B01EBE4
:10075000C000407801280DD18C49B1F9080001F0A2
:1007600007FB05468948B0F9081023462A4690A0A1
:10077000FFF756FD86480078022819D18349B1F960
:100780000A0001F0F5FA8149096B01EBC0004078DD
:1007900001280DD17D49B1F90A0001F0E9FA0546B9
:1007A0007A48B0F90A1023462A468BA0FFF738FD95
:1007B00077480078012803D07548007805283BD198
:1007C00074480068201A022836D9724804607048BC
:1007D0000078012813D16D49B1F90800012101F019
:1007E00033FB6A49B1F9080001F0C2FA05466748CF
:1007F000B0F9081023462A4681A0FFF711FD64488E
:100800000078052813D16149B1F90A00012101F0EE
:100810001BFB5E49B1F90A0001F0AAFA05465B48E4
:10082000B0F90A1023462A4675A0FFF7F9FC58488C
:100830000078401C5649087055480078022803D0BB
:100840005348007806283BD152480068201A1628E1
:1008500036D9504804604E480078022813D14B49DD
:10086000B1F90800002101F0EFFA4849B1F9080098
:1008700001F07EFA05464548B0F9081023462A469D
:1008800068A0FFF7CDFC42480078062813D13F4905
:10089000B1F90A00002101F0D7FA3C49B1F90A0088
:1008A00001F066FA05463948B0F90A1023462A468F
:1008B0005CA0FFF7B5FC36480078401C344908704E
:1008C00033480078032803D031480078072847D1FF
:1008D00030480068201A022842D92E4804602C486B
:1008E0000078012819D12949B1F9080001F040FA2E
:1008F0002649096B01EBC000407801280DD123493E
:10090000B1F9080001F034FA05462048B0F90810A2
:1009100023462A4626A0FFF783FC1D4800780228BC
:1009200019D11A49B1F90A0001F022FA1749096BE5
:1009300001EBC000407801280DD11449B1F90A003B
:1009400001F016FA05461148B0F90A1023462A4666
:1009500021A0FFF765FC0E480078401C0C49087088
:100960000B480078042803D00948007808280BD1E8
:1009700008480068201A3C2806D90020044908705D
:10098000214631A0FFF74CFC70BD00009408002008
:10099000100000200C0000207374617274207469D0
:1009A0006D6520636C6B203D2025640D0A000000FE
:1009B000C2A5B2E32564CBA2BFA8CAA7C4DC2CB6EB
:1009C000D4D3A6BCCCB5E7C6F725642C636C6B3DCD
:1009D00025640D0A00000000C2A5B2E32564CBA285
:1009E000BFA8CAA7C4DCA3ACB6D4D3A6BCCCB5E719
:1009F000C6F725642C636C6B3D25640D0A0000006E
:100A0000B0B4CFC22564B2E3B0B4C5A5A3ACB6D42C
:100A1000D3A6BCCCB5E7C6F725642C636C6B3D252B
:100A2000640D0A00CCA7C6F02564B2E3B0B4C5A536
:100A3000A3ACB6D4D3A6BCCCB5E7C6F725642C636B
:100A40006C6B3D25640D0A00D2BBC2D6B0B4BCFCB1
:100A5000BDE1CAF82C636C6B3D25640D0A000000F3
:100A60002DE9F04102460025002600200023002445
:100A7000002791F803C00CF00F0591F803C00CF0AB
:100A8000100CBCF1000F03D091F802C04CEA050530
:100A900091F800C0BCF1000F31D0146800202BE0A9
:100AA0004FF0010C0CFA00F3B1F800C00CEA030699
:100AB0009E4220D183004FF00F0C0CFA03F7BC4389
:100AC00005FA03FC4CEA040491F803C0BCF1280FBA
:100AD00006D14FF0010C0CFA00FCC2F814C00AE079
:100AE00091F803C0BCF1480F05D14FF0010C0CFA8E
:100AF00000FCC2F810C0401C0828D1D31460B1F823
:100B000000C0BCF1FF0F34DD546800202EE000F17E
:100B1000080C4FF0010808FA0CF3B1F800C00CEA19
:100B200003069E4221D183004FF00F0C0CFA03F70D
:100B3000BC4305FA03FC4CEA040491F803C0BCF181
:100B4000280F05D100F1080C08FA0CF8C2F814803F
:100B500091F803C0BCF1480F07D100F1080C4FF029
:100B6000010808FA0CF8C2F81080401C0828CED3FF
:100B70005460BDE8F0810000F0B50A46002300246F
:100B80000021002500F00046B6F1004F02D11D4EB5
:100B9000F16901E01B4E7168C0F3034583B200F4B4
:100BA0004016B6F5401F08D121F07061154E7668E9
:100BB00026F07066134F7E6012E000F48016B6F5E2
:100BC000801F06D1032606FA05F4A14341F07061A7
:100BD00006E0460D360103FA06F6B14341F07061B6
:100BE00022B1460D360103FA06F6314300F0004605
:100BF000B6F1004F02D1034EF16101E0014E716088
:100C0000F0BD0000000001400246002093680B4048
:100C10000BB1012000E00020704741617047016185
:100C20007047000008B501217C2000F081FA1020F7
:100C30008DF8030003208DF8020040F20110ADF89A
:100C4000000069465148FFF70BFF4FF2E030ADF866
:100C5000000069464E48FFF703FF40F2CF30ADF881
:100C6000000069464B48FFF7FBFE4FF61F10ADF83A
:100C7000000069464848FFF7F3FE47F61F40ADF80D
:100C8000000069464548FFF7EBFE10208DF8030091
:100C900003208DF802000121084600F049FA0121E5
:100CA0003F48FFF769FF4FF4C050ADF800006946B8
:100CB0003648FFF7D5FE1920ADF8000069463448E4
:100CC000FFF7CEFE4FF47C40ADF800006946314896
:100CD000FFF7C6FE4FF4DC60ADF8000069462E4811
:100CE000FFF7BEFE6020ADF8000069462B48FFF715
:100CF000B7FE10208DF8030003208DF802004FF49A
:100D00000040ADF8000069462048FFF7A9FEF0203A
:100D1000ADF8000028208DF8030069461B48FFF756
:100D20009FFE3020ADF8000069461A48FFF798FE94
:100D300000F084FF4FF480711748FFF770FF4FF405
:100D400000411548FFF76BFF4FF480710F48FFF724
:100D500066FF10211048FFF762FF4FF400710C4846
:100D6000FFF75DFF10210D48FFF759FF01210748EC
:100D7000FFF755FF4FF480410848FFF750FF4FF44D
:100D800000410248FFF74BFF08BD0000000801408A
:100D9000000C014000100140001401400018014007
:100DA0000002300000BFFEE70FB470B5DDE90A5461
:100DB000002600E001261548FFF76EFC0028F9D157
:100DC00016B10A2001F01AF81148BDF81010018080
:100DD0009DF812108170142205A9C01CFFF7C8FAF3
:100DE000224629460A481730FFF7C2FA0021074871
:100DF000FFF746FC04F117000449091D08600121B2
:100E00000248FFF73DFC70BC5DF814FB8000024017
:100E10007401002010B5C0201449087000204870EB
:100E2000072088701248C078C8701148007908718E
:100E30000F4840794871E72088718020C8711720D9
:100E400008724320487200BF0A48FFF725FC0028BB
:100E5000FAD100210748FFF713FC0A200549091DB4
:100E6000086001210348FFF70BFC10BD740100204E
:100E7000940800208000024000B591B001210420B8
:100E800000F056F90121480400F042F90420ADF8C1
:100E9000400003208DF8420018208DF8430010A96F
:100EA0006948FFF7DDFD0820ADF8400004208DF80B
:100EB000430010A96448FFF7D3FD26208DF82C00CD
:100EC00003208DF82D008DF82E0001208DF82F00C5
:100ED0000BA800F0D3F84FF416500C900020ADF89A
:100EE0003400ADF83600ADF83800ADF83C000C2009
:100EF000ADF83A000CA9554800F0DAFC012240F2A6
:100F00002441524800F0AEFC0121504800F06BFC37
:100F10000121084600F0ECF84C48001D00904C48B8
:100F20000190002002904FF49670039000200490EE
:100F30008020059000200690079008904FF44050C4
:100F4000099000200A9069464248FFF7A9FB012159
:100F50004048FFF795FB3D48001D00903E4801903A
:100F6000102002900020039069463A481430FFF7A1
:100F700097FB012240F22661344800F073FC012205
:100F8000C021324800F03BFC0121482000F0D0F89D
:100F90000220ADF8400010208DF8430003208DF8AA
:100FA000420010A92D48FFF75BFD8020ADF84000FE
:100FB00010A92B48FFF754FD4FF40070ADF8400026
:100FC00010208DF8430003208DF8420010A924481A
:100FD000FFF746FD4FF48070ADF8400004208DF817
:100FE000430010A91E48FFF73BFD02211B48FFF7F5
:100FF00014FE80211A48FFF712FE4FF400711848C2
:10100000FFF70DFE4FF47A7000F0F8FEFFF702FFD5
:101010004FF4967000F0F2FE02211048FFF7FDFD3C
:1010200080210F48FFF7F9FD0021084800F0DBFBA5
:101030004FF4E1300C900121044800F0D4FB09A0EA
:10104000FFF7EEF811B000BD000801400044004079
:10105000480000206C00024074010020000C014098
:1010600000180140B3F5CABCBBAFCDEAB3C90D0A45
:101070000000000000BFFEE77047000070B50021CF
:1010800000230F22C47804B3154C246804F4E064F0
:10109000C4F5E064210AC1F10403CA40447804FAAB
:1010A00003F184781440214309010E4C0678A155C0
:1010B000047804F01F050124AC4005786D11AD00E3
:1010C00005F1E025C5F8004109E0047804F01F05AA
:1010D0000124AC40044D0678761145F8264070BDD9
:1010E0000CED00E000E400E080E100E0704700006B
:1010F00029B1064A52690243044B5A6104E0034A8B
:1011000052698243014B5A6170470000001002404F
:1011100029B1064AD2690243044BDA6104E0034A6A
:10112000D2698243014BDA6170470000001002402F
:1011300029B1064A92690243044B9A6104E0034ACA
:1011400092698243014B9A6170470000001002408F
:1011500030B500210022002400232D4D6D6805F0DC
:101160000C0121B1042905D0082923D105E0294D1E
:10117000056022E0274D05601FE0254D6D6805F4F0
:101180007012234D6D6805F48034022505EB924200
:101190001CB9214D554305600BE01D4D6D6805F4EC
:1011A00000351DB11C4D5543056002E0194D5543F6
:1011B000056002E0174D056000BF00BF144D6D686B
:1011C00005F0F0010909154D6B5C0568DD404560CF
:1011D0000F4D6D6805F4E061090A104D6B5C4568C0
:1011E000DD4085600A4D6D6805F46051C90A0B4DFC
:1011F0006B5C4568DD40C560054D6D6805F4404198
:10120000890B074D6B5CC568B5FBF3F5056130BD17
:101210000010024000127A0000093D003400002056
:101220004400002070470000034991F82C108143CE
:10123000014A82F82C10704794080020034991F865
:101240002C100143014A82F82C10704794080020AA
:1012500010B500F001F810BD0CB500200190009011
:101260003348006840F480303149086000BF30489E
:10127000006800F4003000900198401C0190009834
:1012800018B90198B0F5A06FF1D12948006800F4B1
:10129000003010B10120009001E000200090009883
:1012A000012843D12348006840F01000214908601C
:1012B0000846006820F0030008600846006840F017
:1012C000020008601A4840681949486008464068AA
:1012D00048600846406840F48060486008464068BE
:1012E00020F47C1048600846406840F4E8104860EC
:1012F0000846006840F08070086000BF0C48006835
:1013000000F000700028F9D00948406820F0030080
:10131000074948600846406840F00200486000BF46
:101320000348406800F00C000828F9D10CBD00000B
:101330000010024000200240042808D14FF0E021B4
:10134000096941F004014FF0E022116107E04FF01C
:10135000E021096921F004014FF0E022116170479A
:101360007047000010B51348006840F001001149B3
:10137000086008464068104908400E494860084621
:1013800000680E4908400B4908600846006820F4D0
:10139000802008600846406820F4FE0048604FF452
:1013A0001F008860FFF754FF4FF000600449086099
:1013B00010BD0000001002400000FFF8FFFFF6FE25
:1013C00008ED00E010B50121064800F050F840B1EA
:1013D0000121044800F03CF803480069401C024920
:1013E000086110BD00040040940800201FB50121D1
:1013F0000620FFF78DFE40F2F310ADF8040041F631
:101400001F40ADF800000020ADF80600ADF8020066
:1014100069460E4800F046F8012211460B4800F0DC
:1014200037F81D208DF80C0000208DF80D000320EA
:101430008DF80E0001208DF80F0003A8FFF71EFEA7
:101440000121024800F007F81FBD00000004004021
:10145000CA430282704721B1028842F00102028031
:1014600004E002884FF6FE731A400280704730B5E0
:101470000246002000230024158A05EA010395890D
:1014800005EA010413B10CB1012000E0002030BDD9
:101490001AB183890B43838102E083898B43838163
:1014A00070470000002202881D4B98420ED01D4B51
:1014B00098420BD0B0F1804F08D01B4B984205D01A
:1014C0001A4B984202D01A4B984204D14FF68F73B0
:1014D0001A404B881A43174B984207D0164B984234
:1014E00004D04FF6FF431A40CB881A4302808B8802
:1014F00083850B8803850A4B98420BD0094B984291
:1015000008D00E4B984205D00D4B984202D00D4B9F
:10151000984201D10B7A0386012383827047000031
:10152000002C01400034014000040040000800404D
:10153000000C00400010004000140040004001403A
:10154000004401400048014010B540F225511D48BB
:1015500000F05EF910B31B4800F016FAC4B21A4846
:10156000008800F40040C8B91748008800F48040A3
:1015700060B10A2C03D000201349088020E01248F3
:10158000008840F400401049088019E00D2C06D175
:101590000D48008840F480400B49088010E00A485C
:1015A0000088C0F30D0009490C5407480088401C0E
:1015B0000549088008460088C72801DD002008800A
:1015C00010BD00000038014008000020CC070020BA
:1015D000F8B500BF40F22441384800F019F900285E
:1015E00057D036480088C6B23448001D0088C6B2BD
:1015F00000213348FFF744F831486C38006FC0F5DC
:1016000096753048008F00902E48C38E828E2946F2
:101610002DA0FEF705FE2B48008F2A49898E8842AF
:1016200003D02848008F27498886002421E02549D7
:10163000C98E481CC11700EB91518912A0EB812182
:10164000204AD1861046C08E1146898E884209D123
:101650001146898E481CC11700EB91518912A0EBED
:10166000812191862648015D1648C28E4030815402
:10167000641CAC42DBD34FF4967011496C39086797
:1016800040F224410D4800F09FF801210C48FEF77C
:10169000F7FF40F22661094800F0BAF868B100216E
:1016A00007481430FEF7ECFF0020054918310860A8
:1016B00040F22661014800F087F8F8BD0044004080
:1016C0006C000240940800200D0ACAD5B5BDCAFDC1
:1016D000BEDD2CCAFDBEDDB3A4B6C8CEAA2564A368
:1016E000BA484541443A2564A3AC5441494C3A2593
:1016F00064A3AC524541443A25640D0A0000000041
:101700004800002070B500BF40F224412A4800F094
:101710007FF800284ED028480088C6B22648001D11
:101720000088C6B200212548FEF7AAFF23483038BA
:10173000406BC0F596752248C08F2149498F884279
:1017400003D01F48C08F1E494887002422E01C494F
:10175000898F481CC11700EB91518912A0EB8121A0
:10176000174A91871046808F1146498F884209D1C8
:101770001146498F481CC11700EB91518912A0EB0B
:10178000812151870F48015D0D48828F00F58860E7
:101790008154641CAC42DAD34FF496700749303957
:1017A000486340F22441044800F00EF80121034848
:1017B000FEF766FF70BD00000048004030000240A8
:1017C00094080020A002002010B50022002340F65B
:1017D0006A14A14200D100BF0A1201249440A3B2AE
:1017E000DC43048010BD21B1828942F40052828121
:1017F00004E082894DF6FF731A40828170471AB166
:10180000838A0B43838202E0838A8B4383827047FF
:1018100070B50246002400230025002040F66A1619
:10182000B14200D100BFC1F3421501F01F030126F0
:1018300006FA03F3012D02D19689334006E0022D0A
:1018400002D1168A334001E0968A33400C120126F9
:1018500006FA04F41688344013B10CB1012000E0FC
:10186000002070BDF0B503460024002600250020AE
:1018700040F66A17B94200D100BF1846C1F34214BE
:1018800001F01F06012707FA06F5012C01D10C30E3
:1018900004E0022C01D1103000E014301AB10768C6
:1018A0002F43076002E00768AF430760F0BD000008
:1018B0002DE9F04786B005460E460024A24600BF3B
:1018C000A1460027B08900B100BF2F462C8A4CF6F4
:1018D000FF700440F08804432C82AC894EF6F3106C
:1018E0000440B08831890843718908430443AC81BE
:1018F000AC8A4FF6FF400440B0890443AC8201A893
:10190000FFF726FC1F48874202D1DDF810A001E056
:10191000DDF80CA0A88900F4004040B10AEBCA0031
:1019200000EB0A1031684900B0FBF1F807E00AEB60
:10193000CA0000EB0A1031688900B0FBF1F864209E
:10194000B8FBF0F004012009642101FB1089A8898B
:1019500000F4004040B1322000EBC900B0FBF1F0D0
:1019600000F00700044308E0322000EB0910642176
:10197000B0FBF1F000F00F0004432C8106B0BDE88D
:10198000F08700000038014001468888C0F3080055
:101990007047000000B591B001210820FFF7C8FB97
:1019A00001218804FFF7B4FB4FF48060ADF84000DC
:1019B00003208DF8420018208DF8430010A94148FB
:1019C000FFF74EF84FF40060ADF8400004208DF8AA
:1019D000430010A93B48FFF743F827208DF82C005F
:1019E00003208DF82D008DF82E0001208DF82F009A
:1019F0000BA8FFF743FB4FF4E1300C900020ADF84B
:101A00003400ADF83600ADF83800ADF83C000C20DD
:101A1000ADF83A000CA92C48FFF74AFF012240F22A
:101A200024412948FFF71EFF01212748FFF7DBFE6D
:101A300001210846FFF75CFB2348001D0090234866
:101A40000190002002904FF49670039000200490C3
:101A50008020059000200690079008904FF4405099
:101A6000099000200A9069461948FEF719FE0121E5
:101A70001748FEF705FE012240211348FFF7BFFE7D
:101A800001214020FFF754FB4FF40040ADF8400027
:101A900014208DF8430003208DF8420010A90D4852
:101AA000FEF7DEFF4FF400410A48FFF7B8F84FF4A5
:101AB0007A7000F0A3F90848808F0749C88711B0F1
:101AC00000BD0000000C014000480040A0020020C2
:101AD0003000024000180140940800200146002216
:101AE00091F83C30302B03D191F83E30302B00D0B0
:101AF0007047062018E00B5C302B07DB0B5C392BA2
:101B000004DC0B5C1344A3F1300209E00B5C612B95
:101B100006DB0B5C662B03DC0B5C1344A3F1570262
:101B20000D2800D21201401C0D28E4D9014B5A6146
:101B300000BFDDE79408002070B505460C467F2DF8
:101B400000DD70BD2846E91705EB11710911082960
:101B500067D2DFE801F004111E2B36434E592CB139
:101B60004FF480713148FFF75AF804E04FF4807168
:101B70002E48FFF752F855E02CB14FF400412B48A6
:101B8000FFF74DF804E04FF400412848FFF745F80F
:101B900048E02CB14FF480712548FFF740F804E08D
:101BA0004FF480712248FFF738F83BE024B1102150
:101BB0001E48FFF734F803E010211C48FFF72DF80A
:101BC00030E02CB14FF400711A48FFF728F804E018
:101BD0004FF400711748FFF720F823E024B11021DB
:101BE0001548FFF71CF803E010211348FFF715F81C
:101BF00018E024B101210E48FFF711F803E001219C
:101C00000B48FFF70AF80DE02CB14FF480410A4869
:101C1000FFF705F804E04FF480410748FEF7FDFFA9
:101C200000E000BF00BF00BF8BE7000000140140D0
:101C300000080140000C01400018014010B54A2086
:101C40001949C870002410211848FEF7DDFF08B1BB
:101C5000201DC4B220211548FEF7D6FF08B1A01CF4
:101C6000C4B240211148FEF7CFFF08B1601CC4B2D6
:101C70000D480471002480210C48FEF7C5FF08B10F
:101C8000201DC4B210210A48FEF7BEFF08B1A01CF7
:101C9000C4B220210648FEF7B7FF08B1601CC4B2E9
:101CA0000148447110BD0000940800200008014064
:101CB0000010014000BFFEE7014600BF7047000072
:101CC00010B5002116E02948006B00EBC100406808
:101CD000C830264CA469A0420AD92448006B00EB06
:101CE000C1004068C838214CA469A04200D203E07A
:101CF000481CC1B27F29E6DD00BF802902D14FF028
:101D0000FF3010BD1948006B00EBC100406800F1C6
:101D1000C8031648006B00EBC1004068A0F1C80280
:101D20001248C06998421DD21048C069904219D922
:101D30000E48006A984215D20C48006A904211D9A8
:101D40000A48406A98420DD20848406A904209D930
:101D50000648806A984205D20448806A904201D9B8
:101D600048B2CEE74FF0FF30CBE7000094080020E8
:101D7000024600210CE0084800EBC100B0F9020067
:101D8000904203D1044810F831007047481CC1B29A
:101D90007F29F0DDFF20F8E7CC03002010B50246D4
:101DA0000B460024002103E0505C2044C4B2491CCF
:101DB0009942F9D3E0B210BD10B56FF00400FFF7FF
:101DC000BBFA0A4800680A49B0FBF1F009490870FB
:101DD0000846007800EB4001C1EBC0104FF6FF71E0
:101DE00001EAC0000449088010BD00002000002066
:101DF00000127A0000000020020000200146114A73
:101E000012884A434FF0E0235A6100229A611A4631
:101E1000126942F001021A6100BF4FF0E02210691E
:101E200000F001021AB100F48032002AF5D04FF020
:101E3000E022126922F001024FF0E0231A61002231
:101E40009A617047020000202DE9F04107460E46D6
:101E50003846FFF78DFF05467F2D01DDBDE8F08197
:101E60002EBB4FF48071F848FEF7D9FE4FF40041C5
:101E7000F548FEF7D4FE4FF48071F448FEF7CFFE2C
:101E80001021F148FEF7CBFE4FF40071F048FEF749
:101E9000C6FE1021EF48FEF7C2FE0121EB48FEF717
:101EA000BEFE4FF48041EB48FEF7B9FED6E7284668
:101EB000E91705EB11710911A5EB0111CCB2E91776
:101EC00005EB11710911082971D2DFE801F0043D19
:101ED00077ACDDF3F2F104F0080028B14FF40041D3
:101EE000DB48FEF79CFE04E04FF40041D848FEF7C3
:101EF00094FE04F0040028B14FF48041D448FEF76A
:101F00008EFE04E04FF48041D148FEF786FE04F0D7
:101F1000020028B14FF40051CD48FEF780FE04E0E6
:101F20004FF40051CA48FEF778FE04F0010028B1D2
:101F30004FF48051C648FEF772FE04E04FF4805122
:101F4000C348FEF76AFE71E104F0010028B14FF4C6
:101F50000061BD48FEF763FE04E04FF40061BA483B
:101F6000FEF75BFE04F0020028B14FF48051B64842
:101F7000FEF755FE04E04FF48051B348FEF74DFEE6
:101F800004F0040028B14FF40051AF48FEF747FEBB
:101F900004E04FF40051AC48FEF73FFE04F00800A7
:101FA00030B14FF48041A848FEF739FE05E03CE12E
:101FB0004FF48041A448FEF730FE37E104F0010001
:101FC00020B14021A448FEF72AFE03E04021A248A8
:101FD000FEF723FE04F0020020B180219E48FEF7A8
:101FE0001EFE03E080219C48FEF717FE04F004006B
:101FF00028B14FF480719848FEF711FE04E04FF4C9
:1020000080719548FEF709FE04F0080028B14FF4EE
:1020100000719148FEF703FE04E04FF400718E4812
:10202000FEF7FBFD02E104F0010020B1012186482A
:10203000FEF7F5FD03E001218348FEF7EEFD04F015
:10204000020020B102218048FEF7E9FD03E00221F1
:102050007D48FEF7E2FD04F0040020B104217A4837
:10206000FEF7DDFD03E004217748FEF7D6FD04F01E
:10207000080020B108217448FEF7D1FD03E00821D3
:102080007148FEF7CAFDD1E004F0010020B1202123
:102090006F48FEF7C4FD03E020216D48FEF7BDFD4B
:1020A00004F0020038B140216948FEF7B8FD06E0AF
:1020B00082E050E01EE040216548FEF7AEFD04F0EE
:1020C000040020B180216248FEF7A9FD03E08021D1
:1020D0005F48FEF7A2FD04F0080028B14FF48071BC
:1020E0005B48FEF79CFD04E04FF480715848FEF712
:1020F00094FD9BE004F0010020B101215548FEF75A
:102100008EFD03E001215348FEF787FD04F0020035
:1021100020B102214F48FEF782FD03E002214D4825
:10212000FEF77BFD04F0040020B104214948FEF7CE
:1021300076FD03E004214748FEF76FFD04F0080038
:1021400020B108214348FEF76AFD03E00821414819
:10215000FEF763FD6AE004F0010020B101213E4872
:10216000FEF75DFD03E001213B48FEF756FD04F05C
:10217000020020B102213848FEF751FD03E00221A0
:102180003548FEF74AFD04F0040020B1042132482E
:10219000FEF745FD03E004212F48FEF73EFD04F065
:1021A000080020B108212C48FEF739FD03E0082182
:1021B0002948FEF732FD39E004F0010028B14FF460
:1021C00080612448FEF72BFD04E04FF48061214834
:1021D000FEF723FD04F0020028B14FF400611D4812
:1021E000FEF71DFD04E04FF400611A48FEF715FDEF
:1021F00004F0040028B14FF480511648FEF70FFD9B
:1022000004E04FF480511348FEF707FD04F0080086
:1022100028B14FF400510F48FEF701FD04E04FF4E0
:1022200000510C48FEF7F9FC00E000BF00BF01219F
:102230002846FFF781FC0220FFF7E0FD0021284639
:10224000FFF77AFC00BF09E60014014000080140D6
:10225000000C0140001801400010014000BF054A79
:10226000128802F04002002AF9D0C2B2014B1B1DB5
:102270001A80704700380140002122E01348006BAB
:1022800010F83100FF281AD01048006B00EBC10095
:102290004068C8300D4A5269904210D90B48006B13
:1022A00000EBC1004068C838084A5269904206D223
:1022B0000648006B00EBC100B0F902007047481CF3
:1022C000C1B27F29DADD4FF0FF30F7E79408002034
:1022D0008CB04FF4165000F05DFEFB48FB490863DC
:1022E000D0208871FF22086B4FF48061FEF7B7F8A9
:1022F000FFF77CF8FFF760FDFEF794FCFFF74AFB61
:10230000FEF7BAFD48E35AE0F04AD28F511CCA17D3
:1023100001EB92529212A1EB8223ED4AD25C6D2A1C
:1023200042D1EA4AD28F901CC21700EB925292120D
:10233000A0EB8223E64AD25C632A35D1022501E074
:10234000681C85B2E149C98F4819C11700EB91514A
:102350008912A0EB8121DD4A928F9142F0D1412D6B
:1023600021DB012419E0D949C98F481CC11700EBB2
:1023700091518912A0EB8122D5498B5C611ED54A0F
:102380005354D249C98F481CC11700EB915189128F
:10239000A0EB8121CD4AD187641C412CE3D9CD48E3
:1023A000FFF79CFB0BE01DE0C849C98F481CC11713
:1023B00000EB91518912A0EB8121C44AD187C34916
:1023C000C98FC24A928F91420CD0C049C98F481C14
:1023D000C11700EB91518912A0EB8121BB4A928F6A
:1023E000914291D100BFB9480069BB490968401AC0
:1023F000322815D301200AE0B449183151F82030B1
:10240000411EB24A183242F82130411CC8B2042899
:10241000F2DDAE494A698A620969AF4A116000BFBC
:10242000AAE0AA4A128F511CCA1701EB92529212CB
:10243000A1EB8223A54A4032D25C1E2A79D1A34A5D
:10244000128F901CC21700EB92529212A0EB8223C3
:102450009E4A4032D25C1F2AF0D1022501E0681C5E
:1024600085B29A49098F4819C11700EB9151891219
:10247000A0EB8121954AD28E9142F0D1142D6CD3DC
:1024800001240BE09148008F2044C0F309018F48DC
:102490004030425C601E8F490A54641C142CF1D9F0
:1024A00012218C48FFF77AFC0746884890F85208BA
:1024B000B84243D18548B0F8506806F1140085420F
:1024C00038D301240BE08148008F2044C0F3090178
:1024D0007E484030425C601E7E490A54641C06F10E
:1024E00014008442EFD931467A481430FFF756FC85
:1024F0008046764890F8531841450BD1754800F056
:102500008BFA7248008F14303044C0F309006F49D1
:10251000088721E071A0FDF783FE6C49098F481CF4
:10252000C11700EB91518912A0EB8121674A1187F5
:1025300012E016E06FA0FDF773FE31E073A0FDF727
:102540006FFE6249098F481CC11700EB9151891237
:10255000A0EB81215D4A11870EE071A0FDF760FEBE
:102560001EE05A49098F481CC11700EB915189128E
:10257000A0EB8121554A11875449098F534AD28EC5
:1025800091420DD05149098F481CC11700EB915160
:102590008912A0EB81214D4AD28E91427FF441AF46
:1025A00000BFFEF79DF849488079D0280AD14748F6
:1025B00090F82C0000F08000002802D0D120434980
:1025C000887147E141488079D12830D1FFF778FB05
:1025D0000446601C30B90820FEF730FE56A0FDF717
:1025E0001FFE23E03948006B00EBC400B0F9020085
:1025F0003649B1F90810884212D10820FEF714FEBE
:1026000055A0FDF70DFE4FF400715848FEF707FB8B
:102610002E48006956490860D2202C49887105E08F
:102620000820FEF70BFE53A0FDF7FAFD12E1274844
:102630008079D22827D1254800694D490968401A78
:10264000B0F5966F0AD955A0FDF7EAFD00F08AFCB7
:102650004FF400714548FEF7E0FAFBE04FF40071DB
:102660004248FEF7DCFA194890F82C0000F04000D0
:10267000002807D0D320154988714FF400713B48DA
:10268000FEF7CBFAE6E011488079D3281AD1FFF79C
:1026900017FB0446601C30B90420FEF7CFFD43A0B1
:1026A000FDF7BEFDA8E00948006B00EBC400B0F9DF
:1026B00002000649B1F90A10884204D10420FEF74D
:1026C000B3FD83E099E091E0CC0300209408002062
:1026D000D40C0020D410002014000020D0ADD2E98A
:1026E0007061796C6F6164D0A3D1E9CAA7B0DC0DC9
:1026F0000A000000D0ADD2E97061796C6F6164CEE0
:10270000B4BDD3CADCCDEAB3C90D0A00D0ADD2E95D
:10271000CDB7B2BFD0A3D1E9CAA7B0DC0D0A000083
:10272000D0ADD2E9CDB7B2BFCEB4BDD3CADCCDEA0D
:10273000D5FB0D0A00000000B5E7CCDDCEB4CDA37B
:10274000BFBFA3ACBFAACABCB4A5B7A2B5DAD2BBFF
:10275000B8F60D0A00000000CDA3D6B9B4A5B7A203
:10276000B5DAD2BBB8F60D0A000000000014014033
:102770001C000020B5E7CCDDCDA3BFBFD4DAB1F09B
:10278000B5C4C2A5B2E3A3ACBFAACABCB4A5B7A2E4
:10279000B5DAD2BBB8F60D0A00000000BFAAC3C567
:1027A000B3ACCAB1B6CFC1AC0D0A0000B5E7CCDD01
:1027B000CEB4CDA3BFBFA3ACBFAACABCB4A5B7A2B9
:1027C000B5DAB6FEB8F60D0A0000000073A0FDF7FA
:1027D00027FD4FF400717648FEF721FA754800692D
:1027E00075490860D4207349887105E00420FEF71C
:1027F00025FD72A0FDF714FD2CE06E488079D428E9
:1028000028D16C4800696C490968401AB0F5966F88
:102810000AD974A0FDF704FD00F0A4FB4FF4007189
:102820006348FEF7FAF915E04FF400716048FEF7CF
:10283000F6F9604890F82C0000F0200050B1D0204C
:102840005C4988714FF400715948FEF7E6F9202081
:10285000FEF7F4FC574890F82C0000F01000002818
:102860007DD05448006964490860524800788DF86A
:102870002C00504840788DF82D004E4880788DF817
:102880002E004C4880798DF8100000208DF8110042
:1028900048488089ADF81200FFF7EEFCADF814004F
:1028A00044488079D02803D042488079D12804D187
:1028B00040480089ADF8160003E03E484089ADF875
:1028C00016001E208DF818001F208DF819003948B9
:1028D000C089401C80B2ADF81A003648C0788DF827
:1028E0001C00344800798DF81D00324840798DF87D
:1028F0001E00002008900990B0208DF81F000820CD
:10290000ADF82800122106A8FFF748FA8DF82A0032
:10291000082104A8FFF742FA8DF82B00254880799A
:10292000BDF91610CDE90010BDF91430BDF8122024
:102930009DF810103148FDF773FC082004A9CDE97B
:102940000210DDE90901CDE9000106A90EC90B98C5
:10295000FEF72AFA1020FEF767FC164800E007E0B1
:1029600090F82C0000F0200008B100F0FBFA00BF46
:1029700010488079D0280BD00E4800691E4909689C
:10298000401AC82804D91EA0FDF74AFC00F0EAFA54
:102990001420FFF733FA00BFB5E40000CDA3D6B989
:1029A000B4A5B7A2B5DAB6FEB8F60D0A000000006D
:1029B00000140140940800201C000020B5E7CCDD85
:1029C000CDA3BFBFD4DAB1F0B5C4C2A5B2E3A3AC06
:1029D000BFAACABCB4A5B7A2B5DAB6FEB8F60D0A4E
:1029E00000000000316D696EBFAAC3C5B3ACCAB1A7
:1029F000B6CFC1AC0D0A0000180000205C30000802
:102A0000313073CFFBCFA2BCE4B8F4B3ACCAB1B6DB
:102A1000CFC1AC0D0A00000070B58CB00546287916
:102A20008DF82C0068798DF82D00A8798DF82E008E
:102A30001E208DF818001F208DF819006888401C92
:102A400080B2ADF81A00FA48C0788DF81C00F8483A
:102A500000798DF81D00F64840798DF81E000020A1
:102A600008900990E879B12804D0B32803D0B5289C
:102A700073D14CE100BF05F114040026EC488079C5
:102A8000B4F90610CDE90010B4F904306288217859
:102A9000E8A0FDF7C5FB2078A3287AD006DCA028A3
:102AA0000BD0A1280FD0A2286BD157E0A42869D061
:102AB000A52868D0AF28F7D1C2E0DD4880798DF82D
:102AC00010000126CEE0B4F90610B4F9040000F0BD
:102AD00023FA00283CD0D6488079D02813D1287911
:102AE000D349087068794870A879887060888881AF
:102AF000E0884881A08808818020FEF79FFB102095
:102B0000FEF79CFB28E0CA488079D12803D0C8484A
:102B10008079D2280DD1C64880896188884203D146
:102B20001020FEF78BFB17E0DF208DF81000012648
:102B300012E0BF4880896188884204D1DD208DF889
:102B40001000012608E0DF208DF81000012603E0C8
:102B5000DE208DF81000012684E0D9E1B448808998
:102B60006188884210D1B2488079D22803D11020E0
:102B7000FEF764FB0CE0DD208DF81000012607E075
:102B800007E06EE02BE041E0DF208DF81000012629
:102B900068E0A7488089618888421BD1A448807971
:102BA000D22806D14020FEF749FB1020FEF746FB55
:102BB00014E09F488079D32803D09D488079D42899
:102BC00003D11020FEF73AFB08E0DD208DF810005D
:102BD000012603E0DF208DF81000012642E0944832
:102BE0008089618888420CD191488079D42803D1AA
:102BF0001020FEF723FB08E0DD208DF810000126F1
:102C000003E0DF208DF8100001262BE08848808942
:102C1000618888420FD186488079D42806D1202047
:102C2000FEF70CFB1020FEF709FB08E0DD208DF815
:102C30001000012603E0DF208DF81000012611E0CE
:102C40007B4880896188884206D100F08BF9D020CA
:102C50008DF81000012603E0DF208DF8100001261A
:102C600000E000BF00BF724890F82C0000F0100098
:102C700010B168886E49C881F6B300208DF8110044
:102C80006088ADF81200FFF7F7FAADF81400684855
:102C90008079D02803D066488079D12803D1A088D4
:102CA000ADF8160002E0E088ADF81600B0208DF80F
:102CB0001F000820ADF82800122106A8FFF76EF8C3
:102CC0008DF82A00082104A8FFF768F88DF82B007A
:102CD00057488079BDF91610CDE90010BDF91430C0
:102CE000BDF812209DF810106248FDF799FA0820EF
:102CF00004A9CDE9021000E008E0DDE90901CDE911
:102D0000000106A90EC90B98FEF74EF801E105F186
:102D100014042078E02802D0E1285BD110E0444977
:102D2000FF22086B4FF48061FDF799FB52A0FDF77D
:102D300077FAF0208DF814000120ADF816004AE073
:102D40003B48006BA17810F83100FF2838D1A078FB
:102D50003749096B01F8300094F901003449096BD7
:102D6000A27801EBC2014880E0783149096BA27872
:102D700001EBC20148702E484169006BA27800EB5C
:102D8000C20041602A48006BA17800EBC100406896
:102D900000902748006BA67800EBC60043782448D3
:102DA000006B10F836202248006B00EBC600B0F92B
:102DB000021035A0FDF734FA0120ADF8160005E049
:102DC00040A0FDF72DFA0020ADF81600F1208DF897
:102DD000140000E000BF00BF00208DF81500B420F3
:102DE0008DF81F000420ADF82800122106A8FEF778
:102DF000D5FF8DF82A00042105A8FEF7CFFF8DF836
:102E00002B00BDF816309DF81420042135A0FDF7E5
:102E100007FA042005A9CDE90210DDE90901CDE991
:102E2000000106A90EC90B98FDF7BEFF71E0000076
:102E300094080020CAD5B5BDC3FCC1EEA3BA636D2A
:102E40006449443D25782C7461736B49443D256485
:102E50002C666C6F6F724E6F773D25642C666C6FBD
:102E60006F724473743D25642D2D2D2D2D25780D05
:102E70000A000000A8300008C7E5BFD5C4DAB4E6F0
:102E8000B2CECAFD0D0A0000D4F6BCD3B2CECAFD44
:102E9000A3BA666C6F6F7249443A25642C72656CF4
:102EA000617949443A25642C6E6565646361726496
:102EB0003D25642C64697374616E63653D25640D02
:102EC0000A000000B2CECAFDD2D1B1BBCAB9D3C389
:102ED000A3ACB1BEB4CEC3FCC1EEB2B5BBD80D0A33
:102EE00000000000B7A2CBCDB1A8CEC4B8BAD4D8E8
:102EF000B3A4B6C83D25642C636D6449443D256484
:102F00002C726573756C743D25640D0A0000000019
:102F100000BF00BF0CB070BD30B502460B460024A8
:102F20000025002113E00E48006B00EBC100B0F952
:102F30000200904200D101240948006B00EBC1005F
:102F4000B0F90200984200D10125481CC1B27F2986
:102F5000E9DD14B10DB1012030BD0020FCE7000017
:102F60009408002010B50020084981F82C00087052
:102F700048708870488108818881D02088714FF41A
:102F800000710348FDF749FE10BD000094080020C1
:102F90000014014010B586B00446012144F204003B
:102FA000FEF7C6F84FF40070ADF8140003208DF85A
:102FB000160018208DF8170005A91C48FDF750FDD4
:102FC0004FF48060ADF8140004208DF8170005A9B7
:102FD0001648FDF745FD25208DF8000003208DF8EB
:102FE00001008DF8020001208DF803006846FEF70D
:102FF00045F801940020ADF80800ADF80A00ADF8DE
:103000000C00ADF810000C20ADF80E0001A9084826
:10301000FEF74EFC012240F225510548FEF722FC46
:1030200001210348FEF7DFFB06B010BD0008014098
:103030000038014030313233343536373839414287
:10304000434445464030580030313233343536370A
:10305000383961626364656640307800D7B4CCACBF
:10306000BBFAD6AEBAF3BBD8B8B4B1A8CEC4A3BA33
:10307000636D6449443D25782C7461736B49443D0C
:1030800025642C666C6F6F724E6F773D25642C66DD
:103090006C6F6F724473743D25642C737461747526
:1030A000733D25780D0A0000BBD8B8B4B1A8CEC4D2
:1030B000A3BA636D6449443D25782C7461736B49F0
:1030C000443D25642C666C6F6F724E6F773D2564AE
:1030D0002C666C6F6F724473743D25642C7374613D
:1030E0007475733D25780D0A000000000C3100084E
:1030F00000000020480000006C0100085431000866
:10310000480000203017000088010008000000007F
:1031100000000000000000000000000000000000AF
:1031200000000000000000000000000000A24A04AF
:103130000000000000000000010203040607080967
:10314000000000000102030401020304060708094D
:043150000204060867
:0400000508000131BD
:00000001FF
